{
  "contractName": "Hospitals",
  "abi": [
    {
      "inputs": [
        {
          "internalType": "string[]",
          "name": "hospital",
          "type": "string[]"
        }
      ],
      "name": "addHospital",
      "outputs": [],
      "stateMutability": "nonpayable",
      "type": "function"
    },
    {
      "inputs": [],
      "name": "getHospitals",
      "outputs": [
        {
          "internalType": "string[]",
          "name": "",
          "type": "string[]"
        }
      ],
      "stateMutability": "view",
      "type": "function",
      "constant": true
    },
    {
      "inputs": [
        {
          "internalType": "string",
          "name": "hospital",
          "type": "string"
        }
      ],
      "name": "setHospital",
      "outputs": [],
      "stateMutability": "nonpayable",
      "type": "function"
    },
    {
      "inputs": [],
      "name": "getHospital",
      "outputs": [
        {
          "internalType": "string",
          "name": "",
          "type": "string"
        }
      ],
      "stateMutability": "view",
      "type": "function",
      "constant": true
    }
  ],
  "bytecode": "0x608060405234801561001057600080fd5b50610b20806100206000396000f3fe608060405234801561001057600080fd5b506004361061004c5760003560e01c806318769d46146100515780631aecb28b1461006f57806395b679911461008d578063ab154433146100a9575b600080fd5b6100596100c5565b604051610066919061034b565b60405180910390f35b610077610157565b6040516100849190610479565b60405180910390f35b6100a760048036038101906100a291906105e4565b610230565b005b6100c360048036038101906100be9190610713565b610243565b005b6060600180546100d49061078b565b80601f01602080910402602001604051908101604052809291908181526020018280546101009061078b565b801561014d5780601f106101225761010080835404028352916020019161014d565b820191906000526020600020905b81548152906001019060200180831161013057829003601f168201915b5050505050905090565b60606000805480602002602001604051908101604052809291908181526020016000905b8282101561022757838290600052602060002001805461019a9061078b565b80601f01602080910402602001604051908101604052809291908181526020018280546101c69061078b565b80156102135780601f106101e857610100808354040283529160200191610213565b820191906000526020600020905b8154815290600101906020018083116101f657829003601f168201915b50505050508152602001906001019061017b565b50505050905090565b806001908161023f9190610972565b5050565b60008151905060005b818110156102b657600083828151811061026957610268610a44565b5b60200260200101519080600181540180825580915050600190039060005260206000200160009091909190915090816102a29190610972565b5080806102ae90610aa2565b91505061024c565b505050565b600081519050919050565b600082825260208201905092915050565b60005b838110156102f55780820151818401526020810190506102da565b60008484015250505050565b6000601f19601f8301169050919050565b600061031d826102bb565b61032781856102c6565b93506103378185602086016102d7565b61034081610301565b840191505092915050565b600060208201905081810360008301526103658184610312565b905092915050565b600081519050919050565b600082825260208201905092915050565b6000819050602082019050919050565b600082825260208201905092915050565b60006103b5826102bb565b6103bf8185610399565b93506103cf8185602086016102d7565b6103d881610301565b840191505092915050565b60006103ef83836103aa565b905092915050565b6000602082019050919050565b600061040f8261036d565b6104198185610378565b93508360208202850161042b85610389565b8060005b85811015610467578484038952815161044885826103e3565b9450610453836103f7565b925060208a0199505060018101905061042f565b50829750879550505050505092915050565b600060208201905081810360008301526104938184610404565b905092915050565b6000604051905090565b600080fd5b600080fd5b600080fd5b600080fd5b7f4e487b7100000000000000000000000000000000000000000000000000000000600052604160045260246000fd5b6104f182610301565b810181811067ffffffffffffffff821117156105105761050f6104b9565b5b80604052505050565b600061052361049b565b905061052f82826104e8565b919050565b600067ffffffffffffffff82111561054f5761054e6104b9565b5b61055882610301565b9050602081019050919050565b82818337600083830152505050565b600061058761058284610534565b610519565b9050828152602081018484840111156105a3576105a26104b4565b5b6105ae848285610565565b509392505050565b600082601f8301126105cb576105ca6104af565b5b81356105db848260208601610574565b91505092915050565b6000602082840312156105fa576105f96104a5565b5b600082013567ffffffffffffffff811115610618576106176104aa565b5b610624848285016105b6565b91505092915050565b600067ffffffffffffffff821115610648576106476104b9565b5b602082029050602081019050919050565b600080fd5b600061067161066c8461062d565b610519565b9050808382526020820190506020840283018581111561069457610693610659565b5b835b818110156106db57803567ffffffffffffffff8111156106b9576106b86104af565b5b8086016106c689826105b6565b85526020850194505050602081019050610696565b5050509392505050565b600082601f8301126106fa576106f96104af565b5b813561070a84826020860161065e565b91505092915050565b600060208284031215610729576107286104a5565b5b600082013567ffffffffffffffff811115610747576107466104aa565b5b610753848285016106e5565b91505092915050565b7f4e487b7100000000000000000000000000000000000000000000000000000000600052602260045260246000fd5b600060028204905060018216806107a357607f821691505b6020821081036107b6576107b561075c565b5b50919050565b60008190508160005260206000209050919050565b60006020601f8301049050919050565b600082821b905092915050565b60006008830261081e7fffffffffffffffffffffffffffffffffffffffffffffffffffffffffffffffff826107e1565b61082886836107e1565b95508019841693508086168417925050509392505050565b6000819050919050565b6000819050919050565b600061086f61086a61086584610840565b61084a565b610840565b9050919050565b6000819050919050565b61088983610854565b61089d61089582610876565b8484546107ee565b825550505050565b600090565b6108b26108a5565b6108bd818484610880565b505050565b5b818110156108e1576108d66000826108aa565b6001810190506108c3565b5050565b601f821115610926576108f7816107bc565b610900846107d1565b8101602085101561090f578190505b61092361091b856107d1565b8301826108c2565b50505b505050565b600082821c905092915050565b60006109496000198460080261092b565b1980831691505092915050565b60006109628383610938565b9150826002028217905092915050565b61097b826102bb565b67ffffffffffffffff811115610994576109936104b9565b5b61099e825461078b565b6109a98282856108e5565b600060209050601f8311600181146109dc57600084156109ca578287015190505b6109d48582610956565b865550610a3c565b601f1984166109ea866107bc565b60005b82811015610a12578489015182556001820191506020850194506020810190506109ed565b86831015610a2f5784890151610a2b601f891682610938565b8355505b6001600288020188555050505b505050505050565b7f4e487b7100000000000000000000000000000000000000000000000000000000600052603260045260246000fd5b7f4e487b7100000000000000000000000000000000000000000000000000000000600052601160045260246000fd5b6000610aad82610840565b91507fffffffffffffffffffffffffffffffffffffffffffffffffffffffffffffffff8203610adf57610ade610a73565b5b60018201905091905056fea2646970667358221220513ad0313d8effdbd09fa9539a5270af13f7048c1e6c94ae3bafbc16d4a7eaea64736f6c63430008130033",
  "immutableReferences": {},
  "source": "// SPDX-License-Identifier: MIT \r\npragma solidity 0.8.19;\r\n\r\ncontract Hospitals{\r\n    string[] HospitalList;\r\n    string Hospital;\r\n\r\n    function addHospital(string[] memory hospital) public{\r\n        uint length = hospital.length;\r\n        for (uint i=0;i<length;i++){\r\n            HospitalList.push(hospital[i]);\r\n        }\r\n    }\r\n    function getHospitals() public view returns (string[] memory){\r\n        return HospitalList;\r\n    }\r\n\r\n    function setHospital(string memory hospital) public{\r\n        Hospital = hospital;\r\n    }\r\n    function getHospital() public view returns (string memory){\r\n        return Hospital;\r\n    }\r\n}",
  "sourcePath": "D:\\Projects\\voins\\blockchain\\contracts\\Hospitals.sol",
  "compiler": {
    "name": "solc",
    "version": "0.8.19+commit.7dd6d404.Emscripten.clang"
  },
  "schemaVersion": "3.4.16",
  "updatedAt": "2025-04-03T07:53:05.276Z",
  "networkType": "ethereum",
  "devdoc": {
    "kind": "dev",
    "methods": {},
    "version": 1
  },
  "userdoc": {
    "kind": "user",
    "methods": {},
    "version": 1
  }
}