{
  "contractName": "Insurance",
  "abi": [
    {
      "inputs": [],
      "name": "insurance",
      "outputs": [
        {
          "internalType": "string",
          "name": "",
          "type": "string"
        }
      ],
      "stateMutability": "view",
      "type": "function",
      "constant": true
    },
    {
      "inputs": [
        {
          "internalType": "uint256",
          "name": "",
          "type": "uint256"
        }
      ],
      "name": "insuranceSet",
      "outputs": [
        {
          "internalType": "string",
          "name": "",
          "type": "string"
        }
      ],
      "stateMutability": "view",
      "type": "function",
      "constant": true
    },
    {
      "inputs": [
        {
          "internalType": "string",
          "name": "ins",
          "type": "string"
        }
      ],
      "name": "setIns",
      "outputs": [],
      "stateMutability": "nonpayable",
      "type": "function"
    },
    {
      "inputs": [],
      "name": "getIns",
      "outputs": [
        {
          "internalType": "string",
          "name": "",
          "type": "string"
        }
      ],
      "stateMutability": "view",
      "type": "function",
      "constant": true
    },
    {
      "inputs": [
        {
          "internalType": "string[]",
          "name": "ins",
          "type": "string[]"
        }
      ],
      "name": "setInsS",
      "outputs": [],
      "stateMutability": "nonpayable",
      "type": "function"
    },
    {
      "inputs": [],
      "name": "getInsS",
      "outputs": [
        {
          "internalType": "string[]",
          "name": "",
          "type": "string[]"
        }
      ],
      "stateMutability": "view",
      "type": "function",
      "constant": true
    }
  ],
  "bytecode": "0x608060405234801561001057600080fd5b50610ced806100206000396000f3fe608060405234801561001057600080fd5b50600436106100625760003560e01c806303a1979b14610067578063698be8ed1461008357806369e89367146100a15780636c800306146100bd57806389cf3204146100ed578063ae7ea0ed1461010b575b600080fd5b610081600480360381019061007c919061062f565b610129565b005b61008b61013c565b60405161009891906107b9565b60405180910390f35b6100bb60048036038101906100b691906108c1565b610215565b005b6100d760048036038101906100d29190610940565b61022f565b6040516100e491906109b7565b60405180910390f35b6100f56102db565b60405161010291906109b7565b60405180910390f35b610113610369565b60405161012091906109b7565b60405180910390f35b80600090816101389190610be5565b5050565b60606001805480602002602001604051908101604052809291908181526020016000905b8282101561020c57838290600052602060002001805461017f90610a08565b80601f01602080910402602001604051908101604052809291908181526020018280546101ab90610a08565b80156101f85780601f106101cd576101008083540402835291602001916101f8565b820191906000526020600020905b8154815290600101906020018083116101db57829003601f168201915b505050505081526020019060010190610160565b50505050905090565b806001908051906020019061022b9291906103fb565b5050565b6001818154811061023f57600080fd5b90600052602060002001600091509050805461025a90610a08565b80601f016020809104026020016040519081016040528092919081815260200182805461028690610a08565b80156102d35780601f106102a8576101008083540402835291602001916102d3565b820191906000526020600020905b8154815290600101906020018083116102b657829003601f168201915b505050505081565b600080546102e890610a08565b80601f016020809104026020016040519081016040528092919081815260200182805461031490610a08565b80156103615780601f1061033657610100808354040283529160200191610361565b820191906000526020600020905b81548152906001019060200180831161034457829003601f168201915b505050505081565b60606000805461037890610a08565b80601f01602080910402602001604051908101604052809291908181526020018280546103a490610a08565b80156103f15780601f106103c6576101008083540402835291602001916103f1565b820191906000526020600020905b8154815290600101906020018083116103d457829003601f168201915b5050505050905090565b828054828255906000526020600020908101928215610443579160200282015b828111156104425782518290816104329190610be5565b509160200191906001019061041b565b5b5090506104509190610454565b5090565b5b80821115610474576000818161046b9190610478565b50600101610455565b5090565b50805461048490610a08565b6000825580601f1061049657506104b5565b601f0160209004906000526020600020908101906104b491906104b8565b5b50565b5b808211156104d15760008160009055506001016104b9565b5090565b6000604051905090565b600080fd5b600080fd5b600080fd5b600080fd5b6000601f19601f8301169050919050565b7f4e487b7100000000000000000000000000000000000000000000000000000000600052604160045260246000fd5b61053c826104f3565b810181811067ffffffffffffffff8211171561055b5761055a610504565b5b80604052505050565b600061056e6104d5565b905061057a8282610533565b919050565b600067ffffffffffffffff82111561059a57610599610504565b5b6105a3826104f3565b9050602081019050919050565b82818337600083830152505050565b60006105d26105cd8461057f565b610564565b9050828152602081018484840111156105ee576105ed6104ee565b5b6105f98482856105b0565b509392505050565b600082601f830112610616576106156104e9565b5b81356106268482602086016105bf565b91505092915050565b600060208284031215610645576106446104df565b5b600082013567ffffffffffffffff811115610663576106626104e4565b5b61066f84828501610601565b91505092915050565b600081519050919050565b600082825260208201905092915050565b6000819050602082019050919050565b600081519050919050565b600082825260208201905092915050565b60005b838110156106de5780820151818401526020810190506106c3565b60008484015250505050565b60006106f5826106a4565b6106ff81856106af565b935061070f8185602086016106c0565b610718816104f3565b840191505092915050565b600061072f83836106ea565b905092915050565b6000602082019050919050565b600061074f82610678565b6107598185610683565b93508360208202850161076b85610694565b8060005b858110156107a757848403895281516107888582610723565b945061079383610737565b925060208a0199505060018101905061076f565b50829750879550505050505092915050565b600060208201905081810360008301526107d38184610744565b905092915050565b600067ffffffffffffffff8211156107f6576107f5610504565b5b602082029050602081019050919050565b600080fd5b600061081f61081a846107db565b610564565b9050808382526020820190506020840283018581111561084257610841610807565b5b835b8181101561088957803567ffffffffffffffff811115610867576108666104e9565b5b8086016108748982610601565b85526020850194505050602081019050610844565b5050509392505050565b600082601f8301126108a8576108a76104e9565b5b81356108b884826020860161080c565b91505092915050565b6000602082840312156108d7576108d66104df565b5b600082013567ffffffffffffffff8111156108f5576108f46104e4565b5b61090184828501610893565b91505092915050565b6000819050919050565b61091d8161090a565b811461092857600080fd5b50565b60008135905061093a81610914565b92915050565b600060208284031215610956576109556104df565b5b60006109648482850161092b565b91505092915050565b600082825260208201905092915050565b6000610989826106a4565b610993818561096d565b93506109a38185602086016106c0565b6109ac816104f3565b840191505092915050565b600060208201905081810360008301526109d1818461097e565b905092915050565b7f4e487b7100000000000000000000000000000000000000000000000000000000600052602260045260246000fd5b60006002820490506001821680610a2057607f821691505b602082108103610a3357610a326109d9565b5b50919050565b60008190508160005260206000209050919050565b60006020601f8301049050919050565b600082821b905092915050565b600060088302610a9b7fffffffffffffffffffffffffffffffffffffffffffffffffffffffffffffffff82610a5e565b610aa58683610a5e565b95508019841693508086168417925050509392505050565b6000819050919050565b6000610ae2610add610ad88461090a565b610abd565b61090a565b9050919050565b6000819050919050565b610afc83610ac7565b610b10610b0882610ae9565b848454610a6b565b825550505050565b600090565b610b25610b18565b610b30818484610af3565b505050565b5b81811015610b5457610b49600082610b1d565b600181019050610b36565b5050565b601f821115610b9957610b6a81610a39565b610b7384610a4e565b81016020851015610b82578190505b610b96610b8e85610a4e565b830182610b35565b50505b505050565b600082821c905092915050565b6000610bbc60001984600802610b9e565b1980831691505092915050565b6000610bd58383610bab565b9150826002028217905092915050565b610bee826106a4565b67ffffffffffffffff811115610c0757610c06610504565b5b610c118254610a08565b610c1c828285610b58565b600060209050601f831160018114610c4f5760008415610c3d578287015190505b610c478582610bc9565b865550610caf565b601f198416610c5d86610a39565b60005b82811015610c8557848901518255600182019150602085019450602081019050610c60565b86831015610ca25784890151610c9e601f891682610bab565b8355505b6001600288020188555050505b50505050505056fea2646970667358221220c666e83ecb6fbcd2c652d6afdfa1074d656bd97454b8ae7f96258fc84557f12364736f6c63430008130033",
  "immutableReferences": {},
  "source": "// SPDX-License-Identifier: UNLICENSED \r\npragma solidity 0.8.19;\r\n\r\ncontract Insurance{\r\n    string public insurance;\r\n    string [] public insuranceSet;\r\n    function setIns(string memory ins) public{\r\n        insurance = ins;\r\n    }\r\n    function getIns() public view returns(string memory){\r\n        return insurance;\r\n    }\r\n\r\n    function setInsS(string[] memory ins) public{\r\n        insuranceSet = ins;\r\n    }\r\n    function getInsS() public view returns(string[] memory){\r\n        return insuranceSet;\r\n    }\r\n}",
  "sourcePath": "D:\\Projects\\voins\\blockchain\\contracts\\Insurance.sol",
  "compiler": {
    "name": "solc",
    "version": "0.8.19+commit.7dd6d404.Emscripten.clang"
  },
  "schemaVersion": "3.4.16",
  "updatedAt": "2025-04-03T08:18:37.489Z",
  "networkType": "ethereum",
  "devdoc": {
    "kind": "dev",
    "methods": {},
    "version": 1
  },
  "userdoc": {
    "kind": "user",
    "methods": {},
    "version": 1
  }
}