{
  "contractName": "Terms",
  "abi": [
    {
      "inputs": [],
      "name": "terms",
      "outputs": [
        {
          "internalType": "string",
          "name": "",
          "type": "string"
        }
      ],
      "stateMutability": "view",
      "type": "function",
      "constant": true
    },
    {
      "inputs": [
        {
          "internalType": "string",
          "name": "rules",
          "type": "string"
        },
        {
          "internalType": "uint256",
          "name": "ins",
          "type": "uint256"
        }
      ],
      "name": "setTerms",
      "outputs": [],
      "stateMutability": "nonpayable",
      "type": "function"
    },
    {
      "inputs": [],
      "name": "getTerms",
      "outputs": [
        {
          "internalType": "string",
          "name": "",
          "type": "string"
        }
      ],
      "stateMutability": "view",
      "type": "function",
      "constant": true
    },
    {
      "inputs": [],
      "name": "getInsBlk",
      "outputs": [
        {
          "internalType": "uint256",
          "name": "",
          "type": "uint256"
        }
      ],
      "stateMutability": "view",
      "type": "function",
      "constant": true
    }
  ],
  "bytecode": "0x608060405234801561001057600080fd5b506107d7806100206000396000f3fe608060405234801561001057600080fd5b506004361061004c5760003560e01c80634173b41714610051578063b211e10d1461006f578063d50256251461008d578063e895434a146100ab575b600080fd5b6100596100c7565b604051610066919061029c565b60405180910390f35b610077610159565b60405161008491906102d7565b60405180910390f35b610095610163565b6040516100a2919061029c565b60405180910390f35b6100c560048036038101906100c09190610467565b6101f1565b005b6060600080546100d6906104f2565b80601f0160208091040260200160405190810160405280929190818152602001828054610102906104f2565b801561014f5780601f106101245761010080835404028352916020019161014f565b820191906000526020600020905b81548152906001019060200180831161013257829003601f168201915b5050505050905090565b6000600154905090565b60008054610170906104f2565b80601f016020809104026020016040519081016040528092919081815260200182805461019c906104f2565b80156101e95780601f106101be576101008083540402835291602001916101e9565b820191906000526020600020905b8154815290600101906020018083116101cc57829003601f168201915b505050505081565b816000908161020091906106cf565b50806001819055505050565b600081519050919050565b600082825260208201905092915050565b60005b8381101561024657808201518184015260208101905061022b565b60008484015250505050565b6000601f19601f8301169050919050565b600061026e8261020c565b6102788185610217565b9350610288818560208601610228565b61029181610252565b840191505092915050565b600060208201905081810360008301526102b68184610263565b905092915050565b6000819050919050565b6102d1816102be565b82525050565b60006020820190506102ec60008301846102c8565b92915050565b6000604051905090565b600080fd5b600080fd5b600080fd5b600080fd5b7f4e487b7100000000000000000000000000000000000000000000000000000000600052604160045260246000fd5b61034882610252565b810181811067ffffffffffffffff8211171561036757610366610310565b5b80604052505050565b600061037a6102f2565b9050610386828261033f565b919050565b600067ffffffffffffffff8211156103a6576103a5610310565b5b6103af82610252565b9050602081019050919050565b82818337600083830152505050565b60006103de6103d98461038b565b610370565b9050828152602081018484840111156103fa576103f961030b565b5b6104058482856103bc565b509392505050565b600082601f83011261042257610421610306565b5b81356104328482602086016103cb565b91505092915050565b610444816102be565b811461044f57600080fd5b50565b6000813590506104618161043b565b92915050565b6000806040838503121561047e5761047d6102fc565b5b600083013567ffffffffffffffff81111561049c5761049b610301565b5b6104a88582860161040d565b92505060206104b985828601610452565b9150509250929050565b7f4e487b7100000000000000000000000000000000000000000000000000000000600052602260045260246000fd5b6000600282049050600182168061050a57607f821691505b60208210810361051d5761051c6104c3565b5b50919050565b60008190508160005260206000209050919050565b60006020601f8301049050919050565b600082821b905092915050565b6000600883026105857fffffffffffffffffffffffffffffffffffffffffffffffffffffffffffffffff82610548565b61058f8683610548565b95508019841693508086168417925050509392505050565b6000819050919050565b60006105cc6105c76105c2846102be565b6105a7565b6102be565b9050919050565b6000819050919050565b6105e6836105b1565b6105fa6105f2826105d3565b848454610555565b825550505050565b600090565b61060f610602565b61061a8184846105dd565b505050565b5b8181101561063e57610633600082610607565b600181019050610620565b5050565b601f8211156106835761065481610523565b61065d84610538565b8101602085101561066c578190505b61068061067885610538565b83018261061f565b50505b505050565b600082821c905092915050565b60006106a660001984600802610688565b1980831691505092915050565b60006106bf8383610695565b9150826002028217905092915050565b6106d88261020c565b67ffffffffffffffff8111156106f1576106f0610310565b5b6106fb82546104f2565b610706828285610642565b600060209050601f8311600181146107395760008415610727578287015190505b61073185826106b3565b865550610799565b601f19841661074786610523565b60005b8281101561076f5784890151825560018201915060208501945060208101905061074a565b8683101561078c5784890151610788601f891682610695565b8355505b6001600288020188555050505b50505050505056fea2646970667358221220dffd02112c60e5cdb9e1bf619ef98e1e5afb1d4fbfbf6fabdc6877259507fd7c64736f6c63430008130033",
  "immutableReferences": {},
  "source": "// SPDX-License-Identifier: MIT \r\npragma solidity 0.8.19;\r\n\r\ncontract Terms{\r\n    string public terms;\r\n    uint insBlk;\r\n    function setTerms(string memory rules, uint ins) public{\r\n        terms = rules;\r\n        insBlk = ins;\r\n    }\r\n\r\n    function getTerms() public view returns (string memory) {\r\n        return terms;\r\n    }\r\n    function getInsBlk() public view returns (uint) {\r\n        return insBlk;\r\n    }\r\n}",
  "sourcePath": "D:\\Projects\\voins\\blockchain\\contracts\\Terms.sol",
  "compiler": {
    "name": "solc",
    "version": "0.8.19+commit.7dd6d404.Emscripten.clang"
  },
  "schemaVersion": "3.4.16",
  "updatedAt": "2025-04-03T08:18:37.594Z",
  "networkType": "ethereum",
  "devdoc": {
    "kind": "dev",
    "methods": {},
    "version": 1
  },
  "userdoc": {
    "kind": "user",
    "methods": {},
    "version": 1
  }
}