{
  "contractName": "Users",
  "abi": [
    {
      "inputs": [
        {
          "internalType": "string",
          "name": "User",
          "type": "string"
        },
        {
          "internalType": "uint256",
          "name": "Hospital",
          "type": "uint256"
        },
        {
          "internalType": "uint256",
          "name": "Insurance",
          "type": "uint256"
        }
      ],
      "name": "setUser",
      "outputs": [],
      "stateMutability": "nonpayable",
      "type": "function"
    },
    {
      "inputs": [],
      "name": "getUser",
      "outputs": [
        {
          "internalType": "string",
          "name": "",
          "type": "string"
        }
      ],
      "stateMutability": "view",
      "type": "function",
      "constant": true
    },
    {
      "inputs": [],
      "name": "getHospital",
      "outputs": [
        {
          "internalType": "uint256",
          "name": "",
          "type": "uint256"
        }
      ],
      "stateMutability": "view",
      "type": "function",
      "constant": true
    },
    {
      "inputs": [],
      "name": "getIns",
      "outputs": [
        {
          "internalType": "uint256",
          "name": "",
          "type": "uint256"
        }
      ],
      "stateMutability": "view",
      "type": "function",
      "constant": true
    }
  ],
  "bytecode": "0x608060405234801561001057600080fd5b5061076e806100206000396000f3fe608060405234801561001057600080fd5b506004361061004c5760003560e01c806318769d4614610051578063832880e71461006f578063ae7ea0ed1461008d578063ebd8c4c8146100ab575b600080fd5b6100596100c7565b60405161006691906101a9565b60405180910390f35b6100776100d1565b6040516100849190610254565b60405180910390f35b610095610163565b6040516100a291906101a9565b60405180910390f35b6100c560048036038101906100c091906103eb565b61016d565b005b6000600154905090565b6060600080546100e090610489565b80601f016020809104026020016040519081016040528092919081815260200182805461010c90610489565b80156101595780601f1061012e57610100808354040283529160200191610159565b820191906000526020600020905b81548152906001019060200180831161013c57829003601f168201915b5050505050905090565b6000600254905090565b826000908161017c9190610666565b508160018190555080600281905550505050565b6000819050919050565b6101a381610190565b82525050565b60006020820190506101be600083018461019a565b92915050565b600081519050919050565b600082825260208201905092915050565b60005b838110156101fe5780820151818401526020810190506101e3565b60008484015250505050565b6000601f19601f8301169050919050565b6000610226826101c4565b61023081856101cf565b93506102408185602086016101e0565b6102498161020a565b840191505092915050565b6000602082019050818103600083015261026e818461021b565b905092915050565b6000604051905090565b600080fd5b600080fd5b600080fd5b600080fd5b7f4e487b7100000000000000000000000000000000000000000000000000000000600052604160045260246000fd5b6102cc8261020a565b810181811067ffffffffffffffff821117156102eb576102ea610294565b5b80604052505050565b60006102fe610276565b905061030a82826102c3565b919050565b600067ffffffffffffffff82111561032a57610329610294565b5b6103338261020a565b9050602081019050919050565b82818337600083830152505050565b600061036261035d8461030f565b6102f4565b90508281526020810184848401111561037e5761037d61028f565b5b610389848285610340565b509392505050565b600082601f8301126103a6576103a561028a565b5b81356103b684826020860161034f565b91505092915050565b6103c881610190565b81146103d357600080fd5b50565b6000813590506103e5816103bf565b92915050565b60008060006060848603121561040457610403610280565b5b600084013567ffffffffffffffff81111561042257610421610285565b5b61042e86828701610391565b935050602061043f868287016103d6565b9250506040610450868287016103d6565b9150509250925092565b7f4e487b7100000000000000000000000000000000000000000000000000000000600052602260045260246000fd5b600060028204905060018216806104a157607f821691505b6020821081036104b4576104b361045a565b5b50919050565b60008190508160005260206000209050919050565b60006020601f8301049050919050565b600082821b905092915050565b60006008830261051c7fffffffffffffffffffffffffffffffffffffffffffffffffffffffffffffffff826104df565b61052686836104df565b95508019841693508086168417925050509392505050565b6000819050919050565b600061056361055e61055984610190565b61053e565b610190565b9050919050565b6000819050919050565b61057d83610548565b6105916105898261056a565b8484546104ec565b825550505050565b600090565b6105a6610599565b6105b1818484610574565b505050565b5b818110156105d5576105ca60008261059e565b6001810190506105b7565b5050565b601f82111561061a576105eb816104ba565b6105f4846104cf565b81016020851015610603578190505b61061761060f856104cf565b8301826105b6565b50505b505050565b600082821c905092915050565b600061063d6000198460080261061f565b1980831691505092915050565b6000610656838361062c565b9150826002028217905092915050565b61066f826101c4565b67ffffffffffffffff81111561068857610687610294565b5b6106928254610489565b61069d8282856105d9565b600060209050601f8311600181146106d057600084156106be578287015190505b6106c8858261064a565b865550610730565b601f1984166106de866104ba565b60005b82811015610706578489015182556001820191506020850194506020810190506106e1565b86831015610723578489015161071f601f89168261062c565b8355505b6001600288020188555050505b50505050505056fea2646970667358221220c8dc98c8b541c2996193f7b57e391809683d5ee4b8bcb56bc7a237eb833c259164736f6c63430008130033",
  "immutableReferences": {},
  "source": "// SPDX-License-Identifier: MIT \r\npragma solidity 0.8.19;\r\n\r\ncontract Users{\r\n    string user;\r\n    uint hospital; \r\n    uint insurance;\r\n\r\n    function setUser(string memory User, uint Hospital, uint Insurance) public {\r\n        user = User;\r\n        hospital = Hospital;\r\n        insurance = Insurance;\r\n    }\r\n    function getUser() public view returns(string memory){\r\n        return user;\r\n    }\r\n    function getHospital() public view returns(uint){\r\n        return hospital;\r\n    }\r\n    function getIns() public view returns(uint){\r\n        return insurance;\r\n    }\r\n\r\n}",
  "sourcePath": "D:\\Projects\\VOINS\\blockchain\\contracts\\Users.sol",
  "compiler": {
    "name": "solc",
    "version": "0.8.19+commit.7dd6d404.Emscripten.clang"
  },
  "schemaVersion": "3.4.16",
  "updatedAt": "2025-03-30T17:52:31.203Z",
  "networkType": "ethereum",
  "devdoc": {
    "kind": "dev",
    "methods": {},
    "version": 1
  },
  "userdoc": {
    "kind": "user",
    "methods": {},
    "version": 1
  }
}