{
  "contractName": "Users",
  "abi": [
    {
      "inputs": [
        {
          "internalType": "uint256",
          "name": "User",
          "type": "uint256"
        },
        {
          "internalType": "uint256",
          "name": "Hospital",
          "type": "uint256"
        },
        {
          "internalType": "uint256",
          "name": "Insurance",
          "type": "uint256"
        }
      ],
      "name": "setUser",
      "outputs": [],
      "stateMutability": "nonpayable",
      "type": "function"
    },
    {
      "inputs": [],
      "name": "getUser",
      "outputs": [
        {
          "internalType": "uint256",
          "name": "",
          "type": "uint256"
        }
      ],
      "stateMutability": "view",
      "type": "function",
      "constant": true
    },
    {
      "inputs": [],
      "name": "getHospital",
      "outputs": [
        {
          "internalType": "uint256",
          "name": "",
          "type": "uint256"
        }
      ],
      "stateMutability": "view",
      "type": "function",
      "constant": true
    },
    {
      "inputs": [],
      "name": "getIns",
      "outputs": [
        {
          "internalType": "uint256",
          "name": "",
          "type": "uint256"
        }
      ],
      "stateMutability": "view",
      "type": "function",
      "constant": true
    }
  ],
  "bytecode": "0x608060405234801561001057600080fd5b506101ec806100206000396000f3fe608060405234801561001057600080fd5b506004361061004c5760003560e01c806318769d46146100515780633c5e058f1461006f578063832880e71461008b578063ae7ea0ed146100a9575b600080fd5b6100596100c7565b6040516100669190610117565b60405180910390f35b61008960048036038101906100849190610163565b6100d1565b005b6100936100eb565b6040516100a09190610117565b60405180910390f35b6100b16100f4565b6040516100be9190610117565b60405180910390f35b6000600154905090565b826000819055508160018190555080600281905550505050565b60008054905090565b6000600254905090565b6000819050919050565b610111816100fe565b82525050565b600060208201905061012c6000830184610108565b92915050565b600080fd5b610140816100fe565b811461014b57600080fd5b50565b60008135905061015d81610137565b92915050565b60008060006060848603121561017c5761017b610132565b5b600061018a8682870161014e565b935050602061019b8682870161014e565b92505060406101ac8682870161014e565b915050925092509256fea2646970667358221220e57ac6c60221a2ce4ab2838324fea0c29cbb44db0b7c0238dc3b23277e63f0a064736f6c63430008130033",
  "immutableReferences": {},
  "source": "// SPDX-License-Identifier: MIT \r\npragma solidity 0.8.19;\r\n\r\ncontract Users{\r\n    uint user;\r\n    uint hospital; \r\n    uint insurance;\r\n\r\n    function setUser(uint User, uint Hospital, uint Insurance) public {\r\n        user = User;\r\n        hospital = Hospital;\r\n        insurance = Insurance;\r\n    }\r\n    function getUser() public view returns(uint){\r\n        return user;\r\n    }\r\n    function getHospital() public view returns(uint){\r\n        return hospital;\r\n    }\r\n    function getIns() public view returns(uint){\r\n        return insurance;\r\n    }\r\n\r\n}",
  "sourcePath": "D:\\Projects\\VOINS\\blockchain\\contracts\\Users.sol",
  "compiler": {
    "name": "solc",
    "version": "0.8.19+commit.7dd6d404.Emscripten.clang"
  },
  "schemaVersion": "3.4.16",
  "updatedAt": "2025-03-30T05:50:14.202Z",
  "networkType": "ethereum",
  "devdoc": {
    "kind": "dev",
    "methods": {},
    "version": 1
  },
  "userdoc": {
    "kind": "user",
    "methods": {},
    "version": 1
  }
}